:100000000C9452010C9413080C9440080C947A013F
:100010000C947A010C947A010C947A010C947A0174
:100020000C947A010C947A010C947A010C947A0164
:100030000C947A010C947A010C947A010C947A0154
:100040000C946D080C947A010C94430B0C94750B72
:100050000C947A010C947A010C947A010C947A0134
:100060000C947A010C947A01000000000000001743
:100070000000000000000000000000000000000080
:100080000000000000000000000000000000000070
:100090000000000000000000000000000000000060
:1000A0000000000000000000000000000000000050
:1000B0000000000000000000000000000000000040
:1000C0000000000000000000000000000000000030
:1000D0000000000000000000000000000000000020
:1000E0000000000000000000000000000000000010
:1000F0000000000000000000000000000000000000
:10010000000000000000000000000000001F0505C6
:10011000051F1F1515150E0E111111111F111111AB
:100120000E1F151515151F050505050E1111150DC9
:100130001F0404041F00001F0000081010100F1FF0
:10014000040A0A111F101010101F0204021F1F02C0
:1001500004081F0E1111110E1F050505020E1111C5
:10016000190E1F0505051A121515150901011F01A4
:10017000010F1010100F030C100C031F0804081FB0
:10018000110A040A11110A040201111915131100B0
:10019000000000000000000000000000000000005F
:1001A000000000000000000000000000001F050526
:1001B000051F1F1515150E0E111111111F1111110B
:1001C0000E1F151515151F050505050E1111150D29
:1001D0001F0404041F00001F0000081010100F1F50
:1001E000040A0A111F101010101F0204021F1F0220
:1001F00004081F0E1111110E1F050505020E111125
:10020000190E1F0505051A121515150901011F0103
:10021000010F1010100F030C100C031F0804081F0F
:10022000110A040A11110A0402011119151311000F
:1002300000000000000000000000000000000000BE
:1002400000000000000000000000000800020100A3
:100250000003040700000000000000000102040881
:100260001020408001020408102001020408102020
:10027000040404040404040402020202020203034C
:1002800003030303000000002300260029000000F0
:100290000000250028002B0000000000240027009B
:1002A0002A00A50B11241FBECFEFD8E0DEBFCDBFC3
:1002B00011E0A0E0B1E0E2EFF3E202C005900D92A0
:1002C000A43AB107D9F722E0A4EAB1E001C01D9237
:1002D000AC35B207E1F712E0C4EAD2E004C02297DD
:1002E000FE010E94B40FC23AD107C9F70E94E90B80
:1002F0000C94F7110C9400008091A8019091A90131
:10030000009711F00E94DE038091A8019091A9014D
:100310000C94C8038091A8019091A901009711F055
:100320000E94FD038091A8019091A9010C94C8033B
:10033000CF93DF938FE090E00E94F80BEC010E94D6
:100340003804D093A701C093A60166E071E0CE0106
:100350000E948D0D61E171E08091A6019091A7014D
:100360000E9458049093A5018093A4016BE171E071
:100370000E94580460E271E08091A4019091A5016F
:100380000E94580463E271E08091A4019091A5015C
:100390000E9458046AE271E08091A6019091A70141
:1003A0000E94580465E371E08091A6019091A70135
:1003B0000E94580461E471E08091A6019091A70128
:1003C0000E9458046AE471E08091A6019091A7010F
:1003D0000E9458046EE471E08091A6019091A701FB
:1003E000DF91CF910C945804CF93DF930E94980132
:1003F0008BE090E00E94F80BEC010E944002D09349
:10040000A901C093A8016091A6017091A701CE0136
:100410000E94760226E040E855E260E070E08BEB57
:1004200091E00E94E10A62E082E00E94660962E0D7
:1004300083E00E94660943E050E06CE771E080E0F1
:100440000E94F30743E050E06AE871E081E00E9417
:10045000F3078091A8019091A901DF91CF910C94AD
:1004600088030E941C044AE050E0BC018BEB91E041
:100470000E94F60C64E670E080E090E00C94DA08EC
:10048000EF92FF920F93CF93DF93EC011A861C82B9
:1004900080E092E00E94F80B7C010E94D304FE826F
:1004A000ED8204E124E04BEB60E0C7010E946907A4
:1004B00082E00E94D50921E0892B09F420E02F83F6
:1004C00083E00E94D50921E0892B09F420E02887E8
:1004D00085E00E94D50921E0892B09F420E02987D5
:1004E000DF91CF910F91FF90EF900895FC01718300
:1004F0006083738362830895EF92FF920F931F933B
:10050000CF93DF931F92CDB7DEB77C01DC011A9643
:100510004C911A97242F30E01296ED91FC9113978D
:10052000828590E00197281739073CF042501496D5
:100530004C9321E100E010E00AC0423020F041502D
:10054000F7014483F6CFD70114961C92F2CF422FC5
:100550006BE0F7018581968129830E947505D7019B
:100560001296ED91FC91139714968C911497A80113
:10057000480F511DCA01880F991F0680F781E02D91
:10058000E80FF91F6081718129816115710539F0CA
:1005900015968D919C9116970E94380C29810F5FBA
:1005A0001F4F285F293299F60F90DF91CF911F914D
:1005B0000F91FF90EF9008958F929F92AF92BF920C
:1005C000EF920F931F93CF93DF93EC0170E080E0E5
:1005D00090E00E949F0E9B01AC0160E070E080E023
:1005E00092E40E940B0E4B015C011CE037E0E32E0D
:1005F00002E0212F40E569E671E08D819E810E9435
:100600009B05185F1C3291F7C501B4010E94730E5F
:10061000062F6A8570E080E090E00E94A10E9B01A9
:10062000AC01C501B4010E942D0F20E030E040E490
:1006300051E40E94A70D0E94730E462FEE24E3940E
:1006400022E060E58D819E810E943506DF91CF9189
:100650001F910F91EF90BF90AF909F908F90089552
:10066000EF920F93FC0122858481281B220F220F19
:10067000220F2F5E45E0E42E06E043E06BE671E0DA
:10068000858196810E949B050F91EF900895CF92EE
:10069000DF92EF920F931F93CF93DF936C01EB01E7
:1006A00010E0CC0FDD1FCF58DE4F52E0E52E02E008
:1006B00028E0412FBE01F601858196810E949B05AD
:1006C0001E5F1A3491F7DF91CF911F910F91EF9038
:1006D000DF90CF900895CF93DF93EC0142E061E08B
:1006E0008D819E810E9475056A817B818D819E81AD
:1006F000DF91CF910C94380CCF93DF93EC0161E044
:1007000070E00E944703CE01DF91CF910C946B0300
:100710000F931F93CF93DF931F92CDB7DEB78C015A
:1007200061E0FC01858196810E941C06F8018081B0
:100730009181892B71F440E060E0858196810E946F
:10074000750563E571E0F801858196810E94460C8C
:1007500015C0C8010E947C03F80142858281938103
:1007600049830E94C7044981682FC8010E94DC02A6
:10077000C8010E947C02C8010E943003F8018581F3
:1007800096810F90DF91CF911F910F910C940A06E3
:10079000FC0182858A3F08F01286A281B3811A96F5
:1007A0004C91228530E0842F90E00197281739077B
:1007B00014F041504287CF010C948803F89429B17A
:1007C0002C702093AA012091AA012C3021F42091B1
:1007D000AC01211109C08091AA01843019F481E093
:1007E0008093AB0178940895FC01228521502287E3
:1007F0001092AB011092AC01F5CFF89429B12C7096
:100800002093AA012091AA012C3021F42091AB0160
:10081000211109C08091AA01883019F481E08093E8
:10082000AC0178940895FC0122852F5F22871092F5
:10083000AB011092AC01F5CFCF93DF9300D0CDB7D1
:10084000DEB780915802909159029E012F5F3F4F71
:10085000009719F42C55324002C0281B390B3A83FB
:10086000298389819A810F900F90DF91CF9108950C
:10087000CF93DF93EC0166E971E00E94770D67E7A3
:1008800071E0CE010E948D0D1A861B861C861E8685
:100890001D8682E090E00E94B80F9F838E8382E0E5
:1008A00090E00E94B80F99878887DF91CF910895D3
:1008B000EF92FF920F931F93CF93DF9300D0CDB7AA
:1008C000DEB77C018FE090E069837A830E94F80BA9
:1008D0008C010E943804D7011A968C911A971696AB
:1008E0002C91169717969C911797E22FF92FE80FE6
:1008F000F11DE80FF11D118300831A968C911A9750
:1009000016962C91169717969C91E22FF92FE80FC7
:10091000F11DE80FF11D69817A81808191810E942A
:100920008D0DF701868197816285FC01E60FF11D2F
:10093000E60FF11DA081B1811E96FC92EE921D97EB
:100940000190F081E02DD7011B962C911B97260F6B
:1009500024876F5F1A966C93BFE06B9FB0011124E0
:100960000E94DF10F701868397832285FC01E20F46
:10097000F11DE20FF11D3297808191810F900F9050
:10098000DF91CF911F910F91FF90EF900895FC019F
:1009900092858385890F08958EBD00000DB407FEF2
:1009A000FDCF8EB50895FC011382128220E831E05C
:1009B000318320830895FC018781869586958695ED
:1009C000268134E5839FC0011124820F911D9583F8
:1009D00084830895CF92DF92EF92FF920F931F933B
:1009E000CF93DF93DC0180EE860F803608F050C095
:1009F0001796FC9017970F2D077010E048E050E015
:100A0000401B510B1496CD91DC9115972896CA0F77
:100A1000DB1F85E0689FB001112420E030E06853BF
:100A20007040FB01E20FF31F8491E880002E01C0AB
:100A3000880F0A94EAF78E298993D490CE018D5AB3
:100A40009F4FFC01E080CD2CD12C042E02C0D59408
:100A5000C7940A94E2F7CE28C0822F5F3F4F25301B
:100A60003105F9F616968C9116978A5F16968C9337
:100A7000169790E08135910544F086E08F0D17962A
:100A80008C93179716961C921697CD010E94DB0443
:100A900080E090E0DF91CF911F910F91FF90EF9058
:100AA000DF90CF9008950F931F93CF93DF93890129
:100AB00085B18A7F682B65B9EA01040F151FC0173D
:100AC000D10721F089910E94CC04F9CF2A9ADF91B5
:100AD000CF911F910F910895842F95B19A7F692B23
:100AE00065B90E94CC042A9A08950F931F93CF935F
:100AF000DF93EC01162F042F6435B8F44033A8F4CB
:100B0000462F406860E00E946C05402F4695469550
:100B10004695406460E0CE010E946C050F831E8301
:100B2000CE010E94DB0481E001C080E0DF91CF9123
:100B30001F910F9108958F929F92AF92BF92CF9283
:100B4000DF92EF92FF920F931F93CF93DF93EC010D
:100B50004B01642F422F0E947505882309F44CC075
:100B6000E694E694E69410E088E0A82EB12C6401A7
:100B7000109FC00CD11C1124F12C2F81F01689F18B
:100B80006C817D81C601322F3770DE01A60FB71F41
:100B9000F60121916F01032E01C0220F0A94EAF79A
:100BA00018964C911897242B18962C93FB01EC5A0D
:100BB000FF4FEC0FFD1FDC018C9190E0A501431B62
:100BC000510902C0959587954A95E2F79085982B33
:100BD00090878E818F5F8E83CE010E94DB04F39419
:100BE000CCCF2F5F2F83CE010E94DB041F5FE11665
:100BF00008F0BDCF81E001C080E0DF91CF911F916F
:100C00000F91FF90EF90DF90CF90BF90AF909F90AB
:100C10008F900895CF93DF93EC0140E060E00E9455
:100C20007505AE01485F5F4F28EF31E061E0CE010E
:100C3000DF91CF910C945305CF93DF93EC01FC012E
:100C4000389688EF91E0DF019C011D9221503040E1
:100C5000E1F7662319F0CE010E940A0640E060E049
:100C6000CE01DF91CF910C9475052F923F924F9258
:100C70005F926F927F928F929F92AF92BF92CF922C
:100C8000DF92EF92FF920F931F93CF93DF931F9208
:100C9000CDB7DEB71C01643548F5403338F5222363
:100CA00029F1002319F10150040FF42EF694F69463
:100CB000F694702E769476947694477010E00095B2
:100CC000109507701127EFEFF0E0CF01042E01C05F
:100CD000880F0A94EAF7982E6F01002E02C0D5946F
:100CE000C7940A94E2F7E11003C008C080E0DDC0B9
:100CF000F710D8C08C2C88226C2C13C0E1E0F0E0F7
:100D000001C0EE0F4A95EAF78E2E40E850E002C08F
:100D1000559547950A95E2F7642EF71004C0842E86
:100D20008E2A9C2C98224F2D440F440F440FC10152
:100D300029830E947505D1011496ED91FC911597B8
:100D4000CF01019615969C938E931497E20DF31D97
:100D500080858929808731E02981022F10E05801A0
:100D6000B1E0AB1AB108432F50E0D10114968D9138
:100D70009C9115974A155B056CF4AC014F5F5F4F72
:100D8000F10155834483E80FF91F80858829808706
:100D90003F5FE9CF223068F0AC014F5F5F4F15969F
:100DA0005C934E931497F101E80FF91F8085892910
:100DB0008087F101848195818C5A9F4F801B910B14
:100DC00095838483872D90E08F1991090297ACF465
:100DD000F71408F065C0D1011496ED91FC911597B8
:100DE000CF01019615969C938E931497E20DF31DF7
:100DF00080858C29808731E02DC0552453945F0C69
:100E000044244A944101800E911E571408F7D101E1
:100E100014968D919C911597EE2059F00896A80193
:100E20006FEF70E0820D931D29830E94B21129811A
:100E300008C0F101E80FF91F4086F401E80FF91F1F
:100E40004782F101848195818C5A9F4F95838483D9
:100E50005394DBCF832F90E08A159B0594F4D10146
:100E60001496ED91FC911597CF01019615969C93E0
:100E70008E931497E20DF31D8085862980873F5F4E
:100E8000E9CF223068F0F101848195819C012F5FC8
:100E90003F4F35832483E80FF91F80858C29808795
:100EA00081E003C06C2C882E3ECF0F90DF91CF9154
:100EB0001F910F91FF90EF90DF90CF90BF90AF9078
:100EC0009F908F907F906F905F904F903F902F906A
:100ED0000895CF92DF92EF92FF920F931F93CF93DB
:100EE000DF931F92CDB7DEB76C01F42EE22E85B1F1
:100EF000876085B984B1876084B969830E94BD0722
:100F00008CB58C7F8CBD8DB581608DBD698166236C
:100F100011F01DE001C01CE02998299A41E260E02F
:100F2000C6010E946C054F2D60E0C6010E946C0551
:100F30004E2D60E0C6010E946C05402F60E0C601A6
:100F40000E946C0540E260E0C6010E946C05412FE2
:100F500060E0C6010E946C0561E0C6010E941C06AB
:100F6000F601168217820F90DF91CF911F910F919A
:100F7000FF90EF90DF90CF900895CF93CFB7F89484
:100F80008091AD01811127C0EAE7F2E08491E6E6A5
:100F9000F2E09491E82FF0E0EE0FFF1FE856FD4FCE
:100FA000A591B4918C91892321F461E08AE00E949B
:100FB0009F0961E08AE00E9466098CB580618CBD62
:100FC0008CB580648CBD61E08DE00E94660961E0B3
:100FD0008BE00E9466098091AD018F5F8093AD0127
:100FE000CFBFCF9108958230E8F4E82FF0E0EE0F04
:100FF000FF1FE255FE4F71836083813041F0809185
:1010000069008C7F842B80936900E89A0895809111
:101010006900440F551F440F551F837F842B809315
:101020006900E99A08951F920F920FB60F9211244A
:101030002F933F934F935F936F937F938F939F93E0
:10104000AF93BF93EF93FF938091AE019091AF0167
:10105000892B29F0E091AE01F091AF010995FF9144
:10106000EF91BF91AF919F918F917F916F915F9120
:101070004F913F912F910F900FBE0F901F90189599
:101080001F920F920FB60F9211242F933F934F93FD
:101090005F936F937F938F939F93AF93BF93EF93E0
:1010A000FF938091B0019091B101892B29F0E091DB
:1010B000B001F091B1010995FF91EF91BF91AF910E
:1010C0009F918F917F916F915F914F913F912F9160
:1010D0000F900FBE0F901F9018951F920F920FB692
:1010E0000F9211242F933F938F939F93AF93BF93AE
:1010F0008091B3019091B401A091B501B091B60176
:101100003091B20123E0230F2D3720F40196A11D69
:10111000B11D05C026E8230F0296A11DB11D209325
:10112000B2018093B3019093B401A093B501B09341
:10113000B6018091B7019091B801A091B901B09129
:10114000BA010196A11DB11D8093B7019093B8011A
:10115000A093B901B093BA01BF91AF919F918F91C4
:101160003F912F910F900FBE0F901F9018953FB792
:10117000F8948091B7019091B801A091B901B09114
:10118000BA0126B5A89B05C02F3F19F00196A11DF5
:10119000B11D3FBF6627782F892F9A2F620F711DCF
:1011A000811D911D42E0660F771F881F991F4A9588
:1011B000D1F70895CF92DF92EF92FF92CF93DF9312
:1011C0006B017C010E94B708EB01C114D104E1045A
:1011D000F10489F00E94A50D0E94B7086C1B7D0BDD
:1011E000683E734090F381E0C81AD108E108F10825
:1011F000C851DC4FEACFDF91CF91FF90EF90DF90A5
:10120000CF900895789484B5826084BD84B5816060
:1012100084BD85B5826085BD85B5816085BDEEE6FE
:10122000F0E0808181608083E1E8F0E010828081DD
:1012300082608083808181608083E0E8F0E080814B
:1012400081608083E1EBF0E0808184608083E0EB6B
:10125000F0E0808181608083EAE7F0E08081846053
:1012600080838081826080838081816080838081AF
:10127000806880831092C1000895833081F028F443
:10128000813099F08230A1F008958730A9F088303C
:10129000B9F08430D1F4809180008F7D03C08091BB
:1012A00080008F7780938000089584B58F7702C087
:1012B00084B58F7D84BD08958091B0008F7703C081
:1012C0008091B0008F7D8093B0000895CF93DF931D
:1012D00090E0FC01E45AFD4F2491FC01E059FD4FE0
:1012E0008491882349F190E0880F991FFC01E8560A
:1012F000FD4FA591B49182579D4FFC01C591D491AA
:101300009FB7611108C0F8948C91209582238C932B
:10131000888182230AC0623051F4F8948C91322F74
:10132000309583238C938881822B888304C0F89422
:101330008C91822B8C939FBFDF91CF9108950F9357
:101340001F93CF93DF931F92CDB7DEB7282F30E0E6
:10135000F901E85BFD4F8491F901E45AFD4F1491C6
:10136000F901E059FD4F04910023C9F0882321F0D1
:1013700069830E943D096981E02FF0E0EE0FFF1FB5
:10138000E257FD4FA591B4919FB7F8948C916111EC
:1013900003C01095812301C0812B8C939FBF0F90B8
:1013A000DF91CF911F910F910895CF93DF93282F55
:1013B00030E0F901E85BFD4F8491F901E45AFD4FFB
:1013C000D491F901E059FD4FC491CC2391F08111E2
:1013D0000E943D09EC2FF0E0EE0FFF1FEC57FD4F90
:1013E000A591B4912C912D2381E090E021F480E02F
:1013F00002C080E090E0DF91CF910895FC01818DE3
:10140000228D90E0805C9F4F821B91098F739927FA
:101410000895FC01918D828D981731F0828DE80F2F
:10142000F11D858D90E008958FEF9FEF0895FC01E9
:10143000918D828D981761F0828DDF01A80FB11D0B
:101440005D968C91928D9F5F9F73928F90E008952F
:101450008FEF9FEF08958BE99BE0892B49F080E0A7
:1014600090E0892B29F00E949B0B81110C940000C5
:101470000895FC01848DDF01A80FB11DA35ABF4F51
:101480002C91848D90E001968F739927848FA68983
:10149000B7892C93A089B1898C9180648C93938DAA
:1014A000848D981306C00288F389E02D80818F7D9A
:1014B00080830895CF93DF93EC01888D8823C9F052
:1014C000EA89FB89808185FD05C0A889B9898C914D
:1014D00086FD0FC00FB607FCF5CF808185FFF2CFE8
:1014E000A889B9898C9185FFEDCFCE010E94390A78
:1014F000E7CFDF91CF910895CF92DF92FF920F93C4
:101500001F93CF93DF931F92CDB7DEB76C0181E0BD
:10151000D60158968C9358975B969C915B975C96F6
:101520008C915C97981307C05096ED91FC91519760
:10153000808185FD2EC0F601038D10E00F5F1F4FE7
:101540000F731127F02EF601848DF81211C00FB61B
:1015500007FCF9CFD6015096ED91FC91519780810F
:1015600085FFF1CFC60169830E94390A6981EBCFFB
:10157000838DE80FF11DE35AFF4F6083D6015B9620
:101580000C935B975296ED91FC915397808180620A
:101590000CC0D6015696ED91FC91579760835096FA
:1015A000ED91FC91519780818064808381E090E08F
:1015B0000F90DF91CF911F910F91FF90DF90CF900F
:1015C0000895BF92CF92DF92EF92FF92CF93DF9375
:1015D000EC016A017B01B22EE889F98982E08083FF
:1015E000411581EE580761057105A1F060E079E0D1
:1015F0008DE390E0A70196010E94900F21503109E0
:10160000410951095695479537952795211580E150
:10161000380798F0E889F989108260E874E88EE16B
:1016200090E0A70196010E94900F215031094109D5
:1016300051095695479537952795EC85FD8530835B
:10164000EE85FF852083188EEC89FD89B082EA89BA
:10165000FB89808180618083EA89FB898081886041
:101660008083EA89FB89808180688083EA89FB899D
:1016700080818F7D8083DF91CF91FF90EF90DF900D
:10168000CF90BF9008951F920F920FB60F92112422
:101690002F938F939F93EF93FF93E091CB01F09162
:1016A000CC018081E091D101F091D20182FD12C084
:1016B00090818091D4018F5F8F732091D501821723
:1016C00051F0E091D401F0E0E554FE4F958F809306
:1016D000D40101C08081FF91EF919F918F912F9153
:1016E0000F900FBE0F901F9018951F920F920FB67C
:1016F0000F9211242F933F934F935F936F937F9398
:101700008F939F93AF93BF93EF93FF938BEB91E0F6
:101710000E94390AFF91EF91BF91AF919F918F91F4
:101720007F916F915F914F913F912F910F900FBEDD
:101730000F901F9018958BEB91E00E94FE0921E01D
:10174000892B09F420E0822F08951092BE01109297
:10175000BD0188EE93E0A0E0B0E08093BF019093DC
:10176000C001A093C101B093C20188E891E09093B9
:10177000BC018093BB0185EC90E09093C8018093FD
:10178000C70184EC90E09093CA018093C90180EC7A
:1017900090E09093CC018093CB0181EC90E090930A
:1017A000CE018093CD0182EC90E09093D0018093A4
:1017B000CF0186EC90E09093D2018093D1011092FA
:1017C000D4011092D5011092D6011092D70108953C
:1017D00008950E9402090E94E80B0E94F401CBE2E6
:1017E000DAE00E9431022097E1F30E942B0AF9CF40
:1017F0000C94B80FCF92DF92EF92FF920F931F934A
:10180000CF93DF936C017A01EB01E60EF71E00E047
:1018100010E0CE15DF0561F06991D601ED91FC91E4
:101820000190F081E02DC6010995080F191FF1CF35
:10183000C801DF91CF911F910F91FF90EF90DF9042
:10184000CF9008956115710581F0DB010D900020A6
:10185000E9F7AD0141505109461B570BDC01ED91F1
:10186000FC910280F381E02D099480E090E00895DE
:10187000DC01ED91FC91DB0114964D915C91159783
:101880006D917C910280F381E02D09940C94220CDF
:10189000DC01ED91FC910190F081E02D099464E967
:1018A00071E00C94220C8F929F92AF92BF92CF92D4
:1018B000DF92EF92FF920F931F93CF93DF93CDB7F9
:1018C000DEB7A1970FB6F894DEBF0FBECDBF7C0187
:1018D000C42EE52FCB01D22E19A221E02D1510F038
:1018E0002AE0D22E8E010F5D1F4F8D2C912CA12C42
:1018F000B12C6C2D7E2FA50194010E94900F8C2D90
:10190000D29E80191124015011098A3014F4805D8F
:1019100001C0895CF801808321153105410551051D
:1019200021F0C22EE32FCA01E4CFB801C7010E9403
:10193000220CA1960FB6F894DEBF0FBECDBFDF918B
:10194000CF911F910F91FF90EF90DF90CF90BF90BC
:10195000AF909F908F900895CF92DF92EF92FF9279
:101960000F931F93CF93DF93EC016A017B01211545
:10197000310579F4E881F9810190F081E02D642F3F
:10198000DF91CF911F910F91FF90EF90DF90CF905B
:1019900009942A303105E9F477FF1AC06DE20E94FC
:1019A000480C8C0144275527BA014C195D096E0972
:1019B0007F092AE0CE010E94530C800F911FDF9116
:1019C000CF911F910F91FF90EF90DF90CF900895EE
:1019D0002AE0B701A601CE01DF91CF911F910F91AF
:1019E000FF90EF90DF90CF900C94530C0F931F93C8
:1019F000CF93DF93EC019A01AB01662757FD609509
:101A0000762F0E94AC0C8C01CE010E944F0C800FEF
:101A1000911FDF91CF911F910F910895CF93DF9385
:101A2000EC0188819981009711F00E945010198271
:101A300018821D821C821B821A82DF91CF91089529
:101A40000F931F93CF93DF93EC018B016F5F7F4F59
:101A5000888199810E94DF10009731F099838883F3
:101A60001B830A8381E001C080E0DF91CF911F9149
:101A70000F910895CF93DF93EC0188819981892B91
:101A800029F08A819B818617970760F4CE010E9416
:101A9000200D882341F08C819D81892B19F4E881E8
:101AA000F981108281E0DF91CF910895EF92FF924A
:101AB0000F931F93CF93DF93EC017B018A01BA014F
:101AC0000E943A0D811104C0CE010E940E0D07C084
:101AD0001D830C83B701888199810E94B911CE01C1
:101AE000DF91CF911F910F91FF90EF900895FC012E
:101AF000118210821382128215821482611571057F
:101B000059F0FB0101900020E9F7AF014150510964
:101B1000461B570B0C94560D0895CF93DF93EC01A1
:101B20006115710561F0FB0101900020E9F7AF013B
:101B300041505109461B570B0E94560D02C00E948E
:101B40000E0DCE01DF91CF91089508955058BB2717
:101B5000AA270ED048C139D130F03ED120F031F45F
:101B60009F3F11F41EF42EC10EF4E095E7FB24C153
:101B7000E92F4AD180F3BA176207730784079507E4
:101B800018F071F49EF562C10EF4E0950B2EBA2F99
:101B9000A02D0B01B90190010C01CA01A001112473
:101BA000FF27591B99F0593F50F4503E68F11A161F
:101BB000F040A22F232F342F4427585FF3CF4695B0
:101BC00037952795A795F0405395C9F77EF41F16D2
:101BD000BA0B620B730B840BBAF09150A1F0FF0F9C
:101BE000BB1F661F771F881FC2F70EC0BA0F621F88
:101BF000731F841F48F4879577956795B795F79578
:101C00009E3F08F0B3CF9395880F08F09927EE0F09
:101C10009795879508950CD0E6C0DED040F0D5D0DA
:101C200030F021F45F3F19F0C7C0511110C1CAC094
:101C3000EBD098F39923C9F35523B1F3951B550BBA
:101C4000BB27AA2762177307840738F09F5F5F4F8F
:101C5000220F331F441FAA1FA9F333D00E2E3AF0D0
:101C6000E0E830D091505040E695001CCAF729D0EA
:101C7000FE2F27D0660F771F881FBB1F2617370739
:101C80004807AB07B0E809F0BB0B802DBF01FF2769
:101C900093585F4F2AF09E3F510568F08DC0D7C022
:101CA0005F3FECF3983EDCF3869577956795B795A3
:101CB000F7959F5FC9F7880F911D9695879597F9BE
:101CC0000895E1E0660F771F881FBB1F6217730737
:101CD0008407BA0720F0621B730B840BBA0BEE1F4C
:101CE00088F7E095089598D088F09F5790F0B92F25
:101CF0009927B751A0F0D1F0660F771F881F991F61
:101D00001AF0BA95C9F712C0B13081F09FD0B1E096
:101D100008959CC0672F782F8827B85F39F0B93FA6
:101D2000CCF3869577956795B395D9F73EF4909562
:101D30008095709561957F4F8F4F9F4F0895E894E0
:101D400009C097FB3EF490958095709561957F4F03
:101D50008F4F9F4F9923A9F0F92F96E9BB279395B1
:101D6000F695879577956795B795F111F8CFFAF4C1
:101D7000BB0F11F460FF1BC06F5F7F4F8F4F9F4FF2
:101D800016C0882311F096E911C0772321F09EE850
:101D9000872F762F05C0662371F096E8862F70E0B6
:101DA00060E02AF09A95660F771F881FDAF7880F90
:101DB0009695879597F9089597F99F6780E870E061
:101DC00060E008959FEF80EC089500240A941616B1
:101DD000170618060906089500240A941216130619
:101DE000140605060895092E0394000C11F48823A7
:101DF00052F0BB0F40F4BF2B11F460FF04C06F5FC3
:101E00007F4F8F4F9F4F089557FD9058440F551F98
:101E100059F05F3F71F04795880F97FB991F61F06C
:101E20009F3F79F087950895121613061406551FE3
:101E3000F2CF4695F1DF08C0161617061806991F4F
:101E4000F1CF86957105610508940895E894BB2744
:101E500066277727CB0197F908950BD0C4CFB5DF5C
:101E600028F0BADF18F0952309F0A6CFABCF1124E4
:101E7000EECFCADFA0F3959FD1F3950F50E0551F29
:101E8000629FF001729FBB27F00DB11D639FAA27CF
:101E9000F00DB11DAA1F649F6627B00DA11D661F1E
:101EA000829F2227B00DA11D621F739FB00DA11D3F
:101EB000621F839FA00D611D221F749F3327A00DF9
:101EC000611D231F849F600D211D822F762F6A2F95
:101ED00011249F5750408AF0E1F088234AF0EE0F1A
:101EE000FF1FBB1F661F771F881F91505040A9F727
:101EF0009E3F510570F060CFAACF5F3FECF3983E54
:101F0000DCF3869577956795B795F795E7959F5F8D
:101F1000C1F7FE2B880F911D9695879597F9089527
:101F2000A1E21A2EAA1BBB1BFD010DC0AA1FBB1FDD
:101F3000EE1FFF1FA217B307E407F50720F0A21B4F
:101F4000B30BE40BF50B661F771F881F991F1A94BC
:101F500069F760957095809590959B01AC01BD01E6
:101F6000CF010895EE0FFF1F0590F491E02D099425
:101F7000CF93DF938230910510F482E090E0E091FE
:101F80005A02F0915B0220E030E0A0E0B0E0309730
:101F900039F14081518148175907B8F0481759075E
:101FA00071F482819381109729F013969C938E93FC
:101FB00012972CC090935B0280935A0227C0211580
:101FC000310531F04217530718F0A901DB0101C0B8
:101FD000EF019A01BD01DF010280F381E02DD7CF2F
:101FE00021153105F9F0281B390B2430310580F417
:101FF0008A819B816115710521F0FB0193838283A6
:1020000004C090935B0280935A02FE01329644C052
:10201000FE01E20FF31F819391932250310939831E
:1020200028833AC02091580230915902232B41F461
:1020300020910201309103013093590220935802FC
:1020400020910001309101012115310541F42DB796
:102050003EB74091040150910501241B350BE091DE
:102060005802F0915902E217F307A0F42E1B3F0B20
:102070002817390778F0AC014E5F5F4F24173507FA
:1020800048F04E0F5F1F50935902409358028193BE
:10209000919302C0E0E0F0E0CF01DF91CF9108958D
:1020A000CF93DF93009709F487C0FC013297138226
:1020B0001282C0915A02D0915B02209781F4208154
:1020C0003181280F391F809158029091590282174F
:1020D000930779F5F0935902E09358026DC0DE0141
:1020E00020E030E0AE17BF0750F412964D915C919E
:1020F00013979D014115510509F1DA01F3CFB3831F
:10210000A28340815181840F951F8A179B0771F428
:102110008D919C911197840F951F029691838083D6
:1021200012968D919C91139793838283211531058B
:1021300029F4F0935B02E0935A023EC0D901139652
:10214000FC93EE9312974D915D91A40FB51FEA1782
:10215000FB0779F480819181840F951F0296D90144
:1021600011969C938E938281938113969C938E9368
:102170001297E0E0F0E08A819B81009719F0FE0160
:10218000EC01F9CFCE01029628813981820F931F8D
:1021900020915802309159022817390769F4309775
:1021A00029F410925B0210925A0202C0138212822A
:1021B000D0935902C0935802DF91CF910895A0E0C7
:1021C000B0E0E5EEF0E10C94C411EC01CB012097F6
:1021D00019F40E94B80FB8C0FE01E60FF71F9E0168
:1021E00022503109E217F30708F4ACC0D9010D9170
:1021F0001C91119706171707B8F00530110508F460
:102200009FC0A801445051094617570708F498C0C9
:1022100002501109061B170B019311936D937C93C8
:10222000CF010E9450108CC05B01A01AB10A4E0170
:10223000800E911EA0915A02B0915B02612C712C0C
:1022400060E070E0109709F449C0A815B905C9F518
:10225000ED90FC901197670142E0C40ED11CCA14A6
:10226000DB0478F147018A189B08640142E0C40E40
:10227000D11C1296BC9012971396AC91B5E0CB1678
:10228000D10440F0B282A38391828082D9018D93E0
:102290009C9309C00E5F1F4F0E0D1F1DF901118386
:1022A0000083EB2DFA2F6115710531F0DB011396D8
:1022B000FC93EE93129744C0F0935B02E0935A02B2
:1022C0003FC06D917C9111976616770608F43B012B
:1022D000BD0112960D90BC91A02DB4CF6091580213
:1022E0007091590268157905E9F468167906D0F4F9
:1022F00040910001509101014115510541F44DB744
:102300005EB76091040170910501461B570BE417FD
:10231000F507C0F4F0935902E0935802F901918354
:1023200080830EC00E94B80F7C01009759F0A8016D
:10233000BE010E94A911CE010E945010C70104C025
:10234000CE0102C080E090E0CDB7DEB7EEE00C94A5
:10235000E011FB01DC0102C001900D9241505040A0
:10236000D8F70895DC0101C06D9341505040E0F76B
:102370000895FB01DC0101900D920020E1F7089522
:102380002F923F924F925F926F927F928F929F9285
:10239000AF92BF92CF92DF92EF92FF920F931F9373
:1023A000CF93DF93CDB7DEB7CA1BDB0B0FB6F89424
:1023B000DEBF0FBECDBF09942A88398848885F8464
:1023C0006E847D848C849B84AA84B984C884DF80D5
:1023D000EE80FD800C811B81AA81B981CE0FD11DB9
:1023E0000FB6F894DEBF0FBECDBFED010895F8948F
:0223F000FFCF1D
:1023F20000005C02800048617570746D656E7565E1
:102402000045696E7374656C6C2E00526F666C00C9
:10241200446900436F70746572004175736368614B
:102422006C746D2E0045696E736368616C746D2EF9
:102432000048657920446F6D6500776173006765B8
:102442006874004572726F722120524F4F542055AA
:102452004E444546494E454400AA550E0E0E1F0EE7
:10246200040202020002014D61696E0000000000D8
:10247200EA04FA0B000000007C0AFA0BFE09170AB4
:10248200090A5A0A0D0A006E616E00696E66006FD3
:04249200766600006A
:00000001FF
