:100000000C9434000C9451000C9451000C94510049
:100010000C9451000C9451000C9451000C9451001C
:100020000C9451000C9451000C9451000C9451000C
:100030000C9451000C9451000C9451000C945100FC
:100040000C94BB000C9451000C9451000C94510082
:100050000C9451000C9451000C9451000C945100DC
:100060000C9451000C94510011241FBECFEFD8E026
:10007000DEBFCDBF11E0A0E0B1E0E6EEF6E002C0E9
:1000800005900D92A231B107D9F721E0A2E1B1E0CC
:1000900001C01D92AF31B207E1F70E94AC000C9491
:1000A00071030C940000CF93DF9300D000D01F9217
:1000B000CDB7DEB7CE0101960E94730046E051E055
:1000C00060E070E0CE0101960E948000CE010196B2
:1000D0000E947F000F900F900F900F900F90DF9174
:1000E000CF9108950895DC011296ED91FC9113973C
:1000F0002CE031E03183208314961C9208950895FA
:10010000CF93DF93EB01209719F4FC01C081D181DB
:100110008A819B816E81FC012BE0629FE00DF11DC5
:10012000112451834083D287C1876F5F6E8370E053
:100130006F5F7F4F0E9440019B838A833E81FC0159
:100140002BE0329FE00DF11D11242F81230F20871A
:10015000DF91CF91089508950E9405010E94AB00A0
:100160000E945300C0E0D0E00E9472002097E1F3AB
:100170000E940000F9CF1F920F920FB60F92112428
:100180002F933F938F939F93AF93BF9380911301CE
:1001900090911401A0911501B091160130911201B6
:1001A00023E0230F2D3720F40196A11DB11D05C0BA
:1001B00026E8230F0296A11DB11D20931201809302
:1001C000130190931401A0931501B093160180912F
:1001D000170190911801A0911901B0911A0101968F
:1001E000A11DB11D8093170190931801A0931901CF
:1001F000B0931A01BF91AF919F918F913F912F9131
:100200000F900FBE0F901F901895789484B5826060
:1002100084BD84B5816084BD85B5826085BD85B5AA
:10022000816085BDEEE6F0E0808181608083E1E859
:10023000F0E0108280818260808380818160808391
:10024000E0E8F0E0808181608083E1EBF0E0808194
:1002500084608083E0EBF0E0808181608083EAE766
:10026000F0E08081846080838081826080838081EF
:10027000816080838081806880831092C1000895AE
:10028000A0E0B0E0E6E4F1E00C943E03EC01CB0129
:10029000209719F40E941302B8C0FE01E60FF71F61
:1002A0009E0122503109E217F30708F4ACC0D901CE
:1002B0000D911C91119706171707B8F0053011051D
:1002C00008F49FC0A801445051094617570708F485
:1002D00098C002501109061B170B019311936D93DF
:1002E0007C93CF010E94AB028CC05B01A01AB10AC3
:1002F0004E01800E911EA0911D01B0911E01612C36
:10030000712C60E070E0109709F449C0A815B90598
:10031000C9F5ED90FC901197670142E0C40ED11C25
:10032000CA14DB0478F147018A189B08640142E093
:10033000C40ED11C1296BC9012971396AC91B5E0E6
:10034000CB16D10440F0B282A38391828082D9017E
:100350008D939C9309C00E5F1F4F0E0D1F1DF90159
:1003600011830083EB2DFA2F6115710531F0DB014C
:100370001396FC93EE93129744C0F0931E01E09302
:100380001D013FC06D917C9111976616770608F4A8
:100390003B01BD0112960D90BC91A02DB4CF609190
:1003A0001B0170911C0168157905E9F4681679063E
:1003B000D0F440910001509101014115510541F4E3
:1003C0004DB75EB76091040170910501461B570B54
:1003D000E417F507C0F4F0931C01E0931B01F90149
:1003E000918380830EC00E9413027C01009759F014
:1003F000A801BE010E940A02CE010E94AB02C70101
:1004000004C0CE0102C080E090E0CDB7DEB7EEE0E0
:100410000C945A03FB01DC0102C001900D92415083
:100420005040D8F70895CF93DF938230910510F4B0
:1004300082E090E0E0911D01F0911E0120E030E0AB
:10044000A0E0B0E0309739F1408151814817590759
:10045000B8F04817590771F482819381109729F0F9
:1004600013969C938E9312972CC090931E018093A9
:100470001D0127C02115310531F04217530718F02F
:10048000A901DB0101C0EF019A01BD01DF0102807A
:10049000F381E02DD7CF21153105F9F0281B390B59
:1004A0002430310580F48A819B816115710521F02A
:1004B000FB019383828304C090931E0180931D01EE
:1004C000FE01329644C0FE01E20FF31F8193919327
:1004D00022503109398328833AC020911B01309181
:1004E0001C01232B41F42091020130910301309330
:1004F0001C0120931B012091000130910101211565
:10050000310541F42DB73EB74091040150910501EA
:10051000241B350BE0911B01F0911C01E217F3073E
:10052000A0F42E1B3F0B2817390778F0AC014E5F63
:100530005F4F2417350748F04E0F5F1F50931C0183
:1005400040931B018193919302C0E0E0F0E0CF0162
:10055000DF91CF910895CF93DF93009709F487C07F
:10056000FC01329713821282C0911D01D0911E01AD
:10057000209781F420813181280F391F80911B0140
:1005800090911C018217930779F5F0931C01E09379
:100590001B016DC0DE0120E030E0AE17BF0750F454
:1005A00012964D915C9113979D014115510509F1EA
:1005B000DA01F3CFB383A28340815181840F951F69
:1005C0008A179B0771F48D919C911197840F951F49
:1005D00002969183808312968D919C9113979383B9
:1005E00082832115310529F4F0931E01E0931D014A
:1005F0003EC0D9011396FC93EE9312974D915D91F5
:10060000A40FB51FEA17FB0779F480819181840F4D
:10061000951F0296D90111969C938E9382819381A6
:1006200013969C938E931297E0E0F0E08A819B8171
:10063000009719F0FE01EC01F9CFCE010296288156
:100640003981820F931F20911B0130911C012817C3
:10065000390769F4309729F410921E0110921D0198
:1006600002C013821282D0931C01C0931B01DF9140
:10067000CF9108952F923F924F925F926F927F9207
:100680008F929F92AF92BF92CF92DF92EF92FF92A2
:100690000F931F93CF93DF93CDB7DEB7CA1BDB0B4E
:1006A0000FB6F894DEBF0FBECDBF09942A883988F3
:1006B00048885F846E847D848C849B84AA84B984FA
:1006C000C884DF80EE80FD800C811B81AA81B98106
:1006D000CE0FD11D0FB6F894DEBF0FBECDBFED011A
:0606E0000895F894FFCF1D
:1006E60000001F01800048656C6C6F004D61696EEB
:0206F600000002
:00000001FF
