:100000000C9461000C947E000C947E000C947E0095
:100010000C947E000C947E000C947E000C947E0068
:100020000C947E000C947E000C947E000C947E0058
:100030000C947E000C947E000C947E000C947E0048
:100040000C94FB030C947E000C947E000C947E00B8
:100050000C947E000C947E000C947E000C947E0028
:100060000C947E000C947E00000000002400270009
:100070002A0000000000250028002B0000000000DE
:1000800023002600290004040404040404040202DA
:100090000202020203030303030301020408102007
:1000A0004080010204081020010204081020000012
:1000B0000007000201000003040600000000000029
:1000C000000011241FBECFEFD8E0DEBFCDBF11E08E
:1000D000A0E0B1E0EAE6FBE002C005900D92A2319B
:1000E000B107D9F711E0A2E1B1E001C01D92AF3133
:1000F000B107E1F70E9468030C94B3050C9400006B
:10010000FB01DC0102C001900D9241505040D8F734
:100110000895FB01DC0101900D920020E1F70895A4
:1001200008950F931F93DF93CF93CDB7DEB7279733
:100130000FB6F894DEBF0FBECDBF8E010F5F1F4F0D
:10014000C8010E94FC00C80160E070E040E051E09E
:100150000E94B900C8010E94B80027960FB6F89413
:10016000DEBF0FBECDBFCF91DF911F910F910895DC
:100170000895CF93DF93FC01EB016115710511F434
:10018000C081D1812A858FE0289F900111248E8122
:100190009F81820F931FBA010E94E2036A85862F16
:1001A00090E0FC0174E0EE0FFF1F7A95E1F7E81B89
:1001B000F90B8E819F81E80FF91FD687C5876F5F86
:1001C0006A8770E06F5F7F4F0E948602FC019F8309
:1001D0008E834A85242F30E0C90154E0880F991F8F
:1001E0005A95E1F7821B930BE80FF91F8B85840F5B
:1001F0008487DF91CF9108950F931F938C01FC01A9
:100200008281938166E071E00E94E203F80114822A
:100210008581968160E00E94D4011F910F9108951D
:10022000FC01643538F5403328F5962F906885B188
:100230008A7F85B99EBD0DB407FEFDCF8EB52A9A83
:10024000242F269526952695922F906485B18A7F36
:1002500085B99EBD0DB407FEFDCF8EB52A9A84E503
:10026000289FC0011124860F911D958384834683A6
:1002700081E0089580E008950F931F93182F092FB0
:1002800060E040E00E94100185B18A7F816085B9FD
:10029000212F302FC901FC0128EF31E087818EBD6D
:1002A0000DB407FEFDCF8EB521503040319621159B
:1002B0003105A1F72A9A1F910F910895CF93DF93EB
:1002C000EC010796FC0188EF91E0DF019C011D9293
:1002D00021503040E1F7662319F0CE010E943C0125
:1002E000CE0160E040E00E941001DF91CF910895BF
:1002F000EF92FF920F931F93CF93DF93EC01162F92
:10030000F42EE22E85B1876085B984B1876084B907
:100310000E94DC01112311F49CE001C09DE02998AA
:10032000299A85B18A7F85B981E28EBD0DB407FE19
:10033000FDCF8EB52A9A85B18A7F85B9FEBC0DB4F2
:1003400007FEFDCF8EB52A9A85B18A7F85B9EEBCAE
:100350000DB407FEFDCF8EB52A9A85B18A7F85B987
:100360000EBD0DB407FEFDCF8EB52A9A85B18A7FEA
:1003700085B980E28EBD0DB407FEFDCF8EB52A9AF9
:1003800085B18A7F85B99EBD0DB407FEFDCF8EB5C0
:100390002A9ACE0161E00E945E01DF91CF911F9108
:1003A0000F91FF90EF9008950F9340EB24E002E14E
:1003B0000E9478010F9108958AE061E00E94320264
:1003C0008AE061E00E94F3018CB580618CBD8CB540
:1003D00080648CBD8DE061E00E94F3018BE061E000
:1003E0000E94F3010895CF93DF93482F50E0CA0194
:1003F00086569F4FFC0134914A575F4FFA01849112
:10040000882369F190E0880F991FFC01E859FF4F9C
:10041000A591B491FC01EE58FF4FC591D49166238C
:1004200051F42FB7F8948C91932F909589238C9346
:10043000888189230BC0623061F42FB7F8948C91C6
:10044000932F909589238C938881832B88832FBF4A
:1004500006C09FB7F8948C91832B8C939FBFDF913C
:10046000CF910895482F50E0CA0182559F4FFC015B
:100470002491CA0186569F4FFC0194914A575F4FC1
:10048000FA013491332309F440C0222351F123307F
:1004900071F0243028F42130A1F0223011F514C07D
:1004A0002630B1F02730C1F02430D9F404C0809157
:1004B00080008F7703C0809180008F7D80938000C3
:1004C00010C084B58F7702C084B58F7D84BD09C00C
:1004D0008091B0008F7703C08091B0008F7D8093B2
:1004E000B000E32FF0E0EE0FFF1FEE58FF4FA59195
:1004F000B4912FB7F894662321F48C9190958923B9
:1005000002C08C91892B8C932FBF08956F927F929C
:100510008F929F92AF92BF92CF92DF92EF92FF9213
:100520000F931F93CF93DF938C01009729F4CB0196
:100530000E947E048C01BBC08EEFE82E8FEFF82E58
:10054000E00EF11E4801860E971E8E149F0408F4DB
:10055000ACC0D7014D915C91119746175707B8F081
:100560004530510508F4A3C0CA01049786179707C0
:1005700008F49DC042505040461B570BF401419374
:1005800051936D937C93CF010E941B0590C05B013A
:10059000A41AB50A3801640E751EA0911D01B09110
:1005A0001E01E0E0F0E0CC24DD2447C0A615B7052D
:1005B000A9F5CD91DC911197CE0102968A159B0584
:1005C00068F1CE018A199B09029612962C91129716
:1005D00013963C91059758F0F40122833383CA198E
:1005E000DB09D183C083D7016D937C9309C04E5F33
:1005F0005F4F4C0F5D1FF70151834083C901FC0120
:10060000C114D10431F0D6011396FC93EE931297E6
:100610004EC0F0931E01E0931D0149C08D919C9145
:100620001197E817F90708F4FC016D0112968C91F7
:10063000129713969C919C01D901109709F0B6CF9F
:1006400080911B0190911C0186159705E9F4E6172E
:10065000F707D0F420910F013091100121153105D9
:1006600041F42DB73EB780910B0190910C01281BEE
:10067000390B82169306C8F490921C0180921B01DC
:10068000F7017183608313C0CB010E947E04EC01EB
:10069000009759F0D7014D915C91B8010E948000FC
:1006A000C8010E941B058E0102C000E010E0C801D5
:1006B000DF91CF911F910F91FF90EF90DF90CF903E
:1006C000BF90AF909F908F907F906F900895089506
:1006D000CF93DF930E9443040E9467030E9491001E
:1006E000C0E0D0E00E9490002097E1F30E9400005B
:1006F000F9CF0F931F93CF93DF93EC018B016F5FC3
:100700007F4F888199810E948602009711F480E0D2
:1007100005C0998388831B830A8381E0DF91CF9191
:100720001F910F910895CF93DF93EC0188819981F8
:10073000892B29F08A819B818617970760F4CE0167
:100740000E947903882341F08C819D81892B19F4C3
:10075000E881F981108281E0DF91CF910895CF93F4
:10076000DF93EC0188819981009711F00E941B05AD
:10077000198218821D821C821B821A82DF91CF91FE
:100780000895EF92FF920F931F93CF93DF93EC01A5
:100790007B018A01BA010E949303882321F4CE01D0
:1007A0000E94AF0307C01D830C8388819981B70124
:1007B0000E948900CE01DF91CF911F910F91FF9090
:1007C000EF9008950F931F93182F092F611571054E
:1007D00059F0DB010D900020E9F71197A61BB70B2C
:1007E000AD010E94C10302C00E94AF03812F902F70
:1007F0001F910F9108951F920F920FB60F9211241F
:100800002F933F938F939F93AF93BF938091160144
:1008100090911701A0911801B091190130911A011E
:100820000196A11DB11D232F2D5F2D3720F02D57CF
:100830000196A11DB11D20931A018093160190937A
:100840001701A0931801B0931901809112019091A2
:100850001301A0911401B09115010196A11DB11DC4
:100860008093120190931301A0931401B09315018A
:10087000BF91AF919F918F913F912F910F900FBE9C
:100880000F901F901895789484B5826084BD84B5CC
:10089000816084BD85B5826085BD85B5816085BD7B
:1008A000EEE6F0E0808181608083E1E8F0E0108294
:1008B000808182608083808181608083E0E8F0E0D5
:1008C000808181608083E1EBF0E0808184608083BF
:1008D000E0EBF0E0808181608083EAE7F0E08081F6
:1008E0008460808380818260808380818160808356
:1008F0008081806880831092C10008950F931F93B8
:10090000CF93DF93BC018230910510F462E070E078
:10091000E0911D01F0911E0140E050E0A0E0B0E048
:1009200024C08081918186179707D0F0861797079A
:1009300071F482819381109729F013969C938E9382
:1009400012972CC090931E0180931D0127C0411562
:10095000510519F08417950718F48D01AC01EF01CA
:10096000DF01828193819C01F9013097D1F6411515
:100970005105F9F0CA01861B970B8430910580F46C
:100980008A819B810115110521F0F80193838283EF
:1009900004C090931E0180931D01FE01329645C054
:1009A000FE01E80FF91F6193719302979983888381
:1009B0003CC080911B0190911C01892B41F48091D6
:1009C0000D0190910E0190931C0180931B014091A9
:1009D0000F01509110014115510541F44DB75EB71B
:1009E00080910B0190910C01481B590B20911B0128
:1009F00030911C0124173507B0F4CA01821B930BF8
:100A00008617970780F0AB014E5F5F4F84179507FD
:100A100050F0420F531F50931C0140931B01F901EA
:100A20006193719302C0E0E0F0E0CF01DF91CF91DC
:100A30001F910F910895CF93DF939C01009709F4C4
:100A40008FC0EC0122971B821A8260911D01709168
:100A50001E016115710581F488819981820F931FB0
:100A600020911B0130911C012817390739F5D093CB
:100A70001C01C0931B0174C0DB0140E050E0AC17C7
:100A8000BD0708F1BB83AA83FE0121913191E20FDA
:100A9000F31FAE17BF0779F48D919C911197280F22
:100AA000391F2E5F3F4F3983288312968D919C9179
:100AB00013979B838A834115510571F4D0931E01CE
:100AC000C0931D014DC012968D919C911397AD015D
:100AD000009711F0DC01D3CFDA011396DC93CE93AB
:100AE0001297FA0121913191E20FF31FCE17DF0720
:100AF00069F488819981280F391F2E5F3F4FFA01D1
:100B0000318320838A819B8193838283E0E0F0E0BC
:100B1000DB0112968D919C911397009719F0BC01FF
:100B2000FD01F6CFAB014E5F5F4FDB018D919C91D4
:100B3000840F951F20911B0130911C012817390744
:100B400079F4309729F410921E0110921D0102C011
:100B5000138212824250504050931C0140931B015B
:0A0B6000DF91CF910895F894FFCFC4
:100B6A0048656C6C6F004D61696E0080001F010062
:020B7A00000079
:00000001FF
