:100000000C9463000C948B000C948B000C948B006C
:100010000C948B000C948B000C948B000C948B0034
:100020000C948B000C948B000C948B000C948B0024
:100030000C948B000C94C1000C948B000C948B00DE
:100040000C94E8040C948B000C948B000C948B00A3
:100050000C948B000C948B000C948B000C948B00F4
:100060000C948B000C948B000000000024002700EF
:100070002A0000000000250028002B0000000000DE
:1000800023002600290004040404040404040202DA
:100090000202020203030303030301020408102007
:1000A0004080010204081020010204081020000012
:1000B0000007000201000003040600000000000029
:1000C0000000BA00B30011241FBECFEFD8E0DEBF9E
:1000D000CDBF11E0A0E0B1E0E6E6FDE002C0059092
:1000E0000D92A231B107D9F711E0A2E1B1E001C050
:1000F0001D92AA32B107E1F710E0C4ECD0E004C0D1
:100100002297FE010E94A206C23CD107C9F70E94B5
:1001100055040C94A6060C940000FB01DC0102C0FF
:1001200001900D9241505040D8F70895FB01DC0139
:1001300001900D920020E1F7089508958130910516
:1001400041F46F5F7F4F71F482E191E00E947F0183
:100150000895892B39F46F5F7F4F21F482E191E09C
:100160000E94F800089580E090E06FEF7FEF0E941A
:100170009E00089581E090E06FEF7FEF0E949E0067
:1001800008951F920F920FB60F9211242F933F9351
:100190004F935F936F937F938F939F93AF93BF938F
:1001A000EF93FF9382E191E00E940301FF91EF91B1
:1001B000BF91AF919F918F917F916F915F914F917F
:1001C0003F912F910F900FBE0F901F9018950F9396
:1001D0001F9302E111E0C80160E070E040E051E0EF
:1001E0000E943C01C8010E94F9001F910F910895DF
:1001F000089585B5856085BD7894EFE6F0E080814F
:100200008160808308950F931F93CF93DF93EC0158
:10021000088510E083E00E9420030817190729F0E1
:1002200088859985882369F010C0098510E084E0ED
:100230000E94200308171907B9F08985988588233B
:1002400021F08C81992321F005C08C81992311F034
:100250008F5F01C081508C8383E00E942003188649
:10026000892B11F081E0888785E00E942003DF91CF
:10027000CF911F910F910895CF93DF93FC01EB0174
:100280006115710511F4C081D1812A858FE0289F05
:10029000900111248E819F81820F931FBA010E94C9
:1002A000CF046A85862F90E0FC01A4E0EE0FFF1FCB
:1002B000AA95E1F7E81BF90B8E819F81E80FF91FE2
:1002C000D687C5876F5F6A8770E06F5F7F4F0E9438
:1002D0007303FC019F838E834A85242F30E0C9017C
:1002E00074E0880F991F7A95E1F7821B930BE80F52
:1002F000F91F8B85840F8487DF91CF910895CF9369
:10030000DF93EC018A819B8166E071E00E94CF045B
:100310001C821D828E819F8160E00E946E0283E0BC
:100320000E9420031886892B11F081E0888784E0E1
:100330000E9420031986892B11F081E0898785E0CE
:100340000E9420031A86892B11F081E08A87DF91B1
:10035000CF910895FC01643538F5403328F5962F88
:10036000906885B18A7F85B99EBD0DB407FEFDCF2B
:100370008EB52A9A242F269526952695922F90643D
:1003800085B18A7F85B99EBD0DB407FEFDCF8EB5C0
:100390002A9A84E5289FC0011124860F911D958318
:1003A0008483468381E0089580E008950F931F932E
:1003B000182F092F60E040E00E94AA0185B18A7FD2
:1003C000816085B9212F302FC901FC0128EF31E070
:1003D00087818EBD0DB407FEFDCF8EB52150304014
:1003E000319621153105A1F72A9A1F910F91089591
:1003F000CF93DF93EC010796FC0188EF91E0DF01DA
:100400009C011D9221503040E1F7662319F0CE0186
:100410000E94D601CE0160E040E00E94AA01DF9177
:10042000CF910895EF92FF920F931F93CF93DF9395
:10043000EC01162FF42EE22E85B1876085B984B1C8
:10044000876084B90E947602112311F49CE001C0F8
:100450009DE02998299A85B18A7F85B981E28EBD70
:100460000DB407FEFDCF8EB52A9A85B18A7F85B976
:10047000FEBC0DB407FEFDCF8EB52A9A85B18A7FEA
:1004800085B9EEBC0DB407FEFDCF8EB52A9A85B1B5
:100490008A7F85B90EBD0DB407FEFDCF8EB52A9AB1
:1004A00085B18A7F85B980E28EBD0DB407FEFDCF90
:1004B0008EB52A9A85B18A7F85B99EBD0DB407FE97
:1004C000FDCF8EB52A9ACE0161E00E94F801DF913E
:1004D000CF911F910F91FF90EF9008950F9340EBF4
:1004E00024E002E10E9412020F9108958AE061E087
:1004F0000E94CC028AE061E00E948D028CB580618E
:100500008CBD8CB580648CBD8DE061E00E948D0255
:100510008BE061E00E948D020895CF93DF93482F16
:1005200050E0CA0186569F4FFC0134914A575F4FF5
:10053000FA018491882369F190E0880F991FFC01EA
:10054000E859FF4FA591B491FC01EE58FF4FC591BA
:10055000D491662351F42FB7F8948C91932F9095F2
:1005600089238C93888189230BC0623061F42FB773
:10057000F8948C91932F909589238C938881832B69
:1005800088832FBF06C09FB7F8948C91832B8C93E0
:100590009FBFDF91CF910895482F50E0CA01825547
:1005A0009F4FFC012491CA0186569F4FFC019491F4
:1005B0004A575F4FFA013491332309F440C0222394
:1005C00051F1233071F0243028F42130A1F0223091
:1005D00011F514C02630B1F02730C1F02430D9F421
:1005E00004C0809180008F7703C0809180008F7D50
:1005F0008093800010C084B58F7702C084B58F7D52
:1006000084BD09C08091B0008F7703C08091B00095
:100610008F7D8093B000E32FF0E0EE0FFF1FEE58C8
:10062000FF4FA591B4912FB7F894662321F48C91D4
:100630009095892302C08C91892B8C932FBF0895AC
:10064000682F70E0CB0182559F4FFC012491CB01B4
:1006500086569F4FFC0144916A577F4FFB0194914E
:10066000992319F420E030E03CC0222351F12330DB
:1006700071F0243028F42130A1F0223011F514C09B
:100680002630B1F02730C1F02430D9F404C0809175
:1006900080008F7703C0809180008F7D80938000E1
:1006A00010C084B58F7702C084B58F7D84BD09C02A
:1006B0008091B0008F7703C08091B0008F7D8093D0
:1006C000B000892F90E0880F991F84589F4FFC013C
:1006D000A591B4918C9120E030E0842311F021E0C9
:1006E00030E0C90108956F927F928F929F92AF92EE
:1006F000BF92CF92DF92EF92FF920F931F93CF930F
:10070000DF938C01009729F4CB010E946B058C01CB
:10071000BBC08EEFE82E8FEFF82EE00EF11E4801E1
:10072000860E971E8E149F0408F4ACC0D7014D911D
:100730005C91119746175707B8F04530510508F4FA
:10074000A3C0CA0104978617970708F49DC04250BA
:100750005040461B570BF401419351936D937C938A
:10076000CF010E94080690C05B01A41AB50A3801A7
:10077000640E751EA0912801B0912901E0E0F0E01F
:10078000CC24DD2447C0A615B705A9F5CD91DC9191
:100790001197CE0102968A159B0568F1CE018A1940
:1007A0009B09029612962C91129713963C910597ED
:1007B00058F0F40122833383CA19DB09D183C08343
:1007C000D7016D937C9309C04E5F5F4F4C0F5D1F47
:1007D000F70151834083C901FC01C114D10431F0F8
:1007E000D6011396FC93EE9312974EC0F093290115
:1007F000E093280149C08D919C911197E817F90762
:1008000008F4FC016D0112968C91129713969C913D
:100810009C01D901109709F0B6CF809126019091E3
:10082000270186159705E9F4E617F707D0F420911C
:100830000F01309110012115310541F42DB73EB75C
:1008400080910B0190910C01281B390B82169306A5
:10085000C8F49092270180922601F701718360838A
:1008600013C0CB010E946B05EC01009759F0D70132
:100870004D915C91B8010E948D00C8010E9408064C
:100880008E0102C000E010E0C801DF91CF911F91FE
:100890000F91FF90EF90DF90CF90BF90AF909F901F
:1008A0008F907F906F9008950895CF93DF930E946B
:1008B00030050E9454040E94E700C0E0D0E00E948E
:1008C0009D002097E1F30E940000F9CF0F931F9342
:1008D000CF93DF93EC018B016F5F7F4F888199810C
:1008E0000E947303009711F480E005C09983888308
:1008F0001B830A8381E0DF91CF911F910F910895AF
:10090000CF93DF93EC0188819981892B29F08A812B
:100910009B818617970760F4CE010E9466048823A6
:1009200041F08C819D81892B19F4E881F981108235
:1009300081E0DF91CF910895CF93DF93EC0188811F
:100940009981009711F00E940806198218821D8271
:100950001C821B821A82DF91CF910895EF92FF9241
:100960000F931F93CF93DF93EC017B018A01BA01B0
:100970000E948004882321F4CE010E949C0407C0B9
:100980001D830C8388819981B7010E949600CE0156
:10099000DF91CF911F910F91FF90EF9008950F93EA
:1009A0001F93182F092F6115710559F0DB010D9068
:1009B0000020E9F71197A61BB70BAD010E94AE040A
:1009C00002C00E949C04812F902F1F910F910895C7
:1009D0001F920F920FB60F9211242F933F938F9374
:1009E0009F93AF93BF938091210190912201A09199
:1009F0002301B0912401309125010196A11DB11D63
:100A0000232F2D5F2D3720F02D570196A11DB11DED
:100A1000209325018093210190932201A09323012B
:100A2000B093240180911D0190911E01A0911F019E
:100A3000B09120010196A11DB11D80931D019093DD
:100A40001E01A0931F01B0932001BF91AF919F9110
:100A50008F913F912F910F900FBE0F901F9018957F
:100A6000789484B5826084BD84B5816084BD85B589
:100A7000826085BD85B5816085BDEEE6F0E0808150
:100A800081608083E1E8F0E0108280818260808371
:100A9000808181608083E0E8F0E0808181608083F4
:100AA000E1EBF0E0808184608083E0EBF0E0808126
:100AB00081608083EAE7F0E08081846080838081C8
:100AC0008260808380818160808380818068808370
:100AD0001092C10008950F931F93CF93DF93BC0131
:100AE0008230910510F462E070E0E0912801F0910D
:100AF000290140E050E0A0E0B0E024C08081918175
:100B000086179707D0F08617970771F48281938133
:100B1000109729F013969C938E9312972CC0909364
:100B200029018093280127C04115510519F0841728
:100B3000950718F48D01AC01EF01DF0182819381EB
:100B40009C01F9013097D1F641155105F9F0CA0120
:100B5000861B970B8430910580F48A819B81011557
:100B6000110521F0F8019383828304C09093290139
:100B700080932801FE01329645C0FE01E80FF91F5F
:100B8000619371930297998388833CC08091260179
:100B900090912701892B41F480910D0190910E01D4
:100BA000909327018093260140910F0150911001ED
:100BB0004115510541F44DB75EB780910B019091FD
:100BC0000C01481B590B2091260130912701241755
:100BD0003507B0F4CA01821B930B8617970780F084
:100BE000AB014E5F5F4F8417950750F0420F531FC4
:100BF0005093270140932601F9016193719302C03C
:100C0000E0E0F0E0CF01DF91CF911F910F910895C7
:100C1000CF93DF939C01009709F48FC0EC012297DA
:100C20001B821A826091280170912901611571055A
:100C300081F488819981820F931F20912601309140
:100C400027012817390739F5D0932701C0932601CA
:100C500074C0DB0140E050E0AC17BD0708F1BB8376
:100C6000AA83FE0121913191E20FF31FAE17BF0756
:100C700079F48D919C911197280F391F2E5F3F4F6A
:100C80003983288312968D919C9113979B838A8335
:100C90004115510571F4D0932901C09328014DC02D
:100CA00012968D919C911397AD01009711F0DC0184
:100CB000D3CFDA011396DC93CE931297FA012191E8
:100CC0003191E20FF31FCE17DF0769F48881998114
:100CD000280F391F2E5F3F4FFA01318320838A810D
:100CE0009B8193838283E0E0F0E0DB0112968D919B
:100CF0009C911397009719F0BC01FD01F6CFAB0151
:100D00004E5F5F4FDB018D919C91840F951F209169
:100D10002601309127012817390779F4309729F4F3
:100D2000109229011092280102C0138212824250AF
:100D300050405093270140932601DF91CF910895B1
:100D4000EE0FFF1F0590F491E02D099410E0C4EC24
:100D5000D0E004C0FE010E94A2062296C63CD10744
:060D6000C9F7F894FFCF73
:100D660048656C6C6F004D61696E0080002A010059
:020D760000007B
:00000001FF
